{
  "contractName": "MarketItem",
  "abi": [
    {
      "inputs": [
        {
          "internalType": "string",
          "name": "_name",
          "type": "string"
        },
        {
          "internalType": "uint256",
          "name": "_price",
          "type": "uint256"
        },
        {
          "internalType": "bool",
          "name": "_isAvailable",
          "type": "bool"
        },
        {
          "internalType": "uint256",
          "name": "_category",
          "type": "uint256"
        }
      ],
      "stateMutability": "nonpayable",
      "type": "constructor"
    },
    {
      "inputs": [],
      "name": "getMarketItem",
      "outputs": [
        {
          "components": [
            {
              "internalType": "string",
              "name": "name",
              "type": "string"
            },
            {
              "internalType": "uint256",
              "name": "price",
              "type": "uint256"
            },
            {
              "internalType": "bool",
              "name": "isAvailable",
              "type": "bool"
            }
          ],
          "internalType": "struct MarketItem.Item",
          "name": "",
          "type": "tuple"
        },
        {
          "internalType": "enum MarketItem.Categories",
          "name": "",
          "type": "uint8"
        }
      ],
      "stateMutability": "view",
      "type": "function",
      "constant": true
    }
  ],
  "bytecode": "0x60806040523480156200001157600080fd5b5060405162000899380380620008998339818101604052810190620000379190620003b2565b60405180606001604052808581526020018481526020018315158152506001600082015181600001908051906020019062000074929190620000ed565b506020820151816001015560408201518160020160006101000a81548160ff021916908315150217905550905050806003811115620000b857620000b762000443565b5b6000806101000a81548160ff02191690836003811115620000de57620000dd62000443565b5b021790555050505050620004d6565b828054620000fb90620004a1565b90600052602060002090601f0160209004810192826200011f57600085556200016b565b82601f106200013a57805160ff19168380011785556200016b565b828001600101855582156200016b579182015b828111156200016a5782518255916020019190600101906200014d565b5b5090506200017a91906200017e565b5090565b5b80821115620001995760008160009055506001016200017f565b5090565b6000604051905090565b600080fd5b600080fd5b600080fd5b600080fd5b6000601f19601f8301169050919050565b7f4e487b7100000000000000000000000000000000000000000000000000000000600052604160045260246000fd5b6200020682620001bb565b810181811067ffffffffffffffff82111715620002285762000227620001cc565b5b80604052505050565b60006200023d6200019d565b90506200024b8282620001fb565b919050565b600067ffffffffffffffff8211156200026e576200026d620001cc565b5b6200027982620001bb565b9050602081019050919050565b60005b83811015620002a657808201518184015260208101905062000289565b83811115620002b6576000848401525b50505050565b6000620002d3620002cd8462000250565b62000231565b905082815260208101848484011115620002f257620002f1620001b6565b5b620002ff84828562000286565b509392505050565b600082601f8301126200031f576200031e620001b1565b5b815162000331848260208601620002bc565b91505092915050565b6000819050919050565b6200034f816200033a565b81146200035b57600080fd5b50565b6000815190506200036f8162000344565b92915050565b60008115159050919050565b6200038c8162000375565b81146200039857600080fd5b50565b600081519050620003ac8162000381565b92915050565b60008060008060808587031215620003cf57620003ce620001a7565b5b600085015167ffffffffffffffff811115620003f057620003ef620001ac565b5b620003fe8782880162000307565b945050602062000411878288016200035e565b935050604062000424878288016200039b565b925050606062000437878288016200035e565b91505092959194509250565b7f4e487b7100000000000000000000000000000000000000000000000000000000600052602160045260246000fd5b7f4e487b7100000000000000000000000000000000000000000000000000000000600052602260045260246000fd5b60006002820490506001821680620004ba57607f821691505b602082108103620004d057620004cf62000472565b5b50919050565b6103b380620004e66000396000f3fe608060405234801561001057600080fd5b506004361061002b5760003560e01c806342199f8814610030575b600080fd5b61003861004f565b6040516100469291906102ed565b60405180910390f35b610057610136565b6000600160008054906101000a900460ff16816040518060600160405290816000820180546100859061034c565b80601f01602080910402602001604051908101604052809291908181526020018280546100b19061034c565b80156100fe5780601f106100d3576101008083540402835291602001916100fe565b820191906000526020600020905b8154815290600101906020018083116100e157829003601f168201915b50505050508152602001600182015481526020016002820160009054906101000a900460ff1615151515815250509150915091509091565b604051806060016040528060608152602001600081526020016000151581525090565b600081519050919050565b600082825260208201905092915050565b60005b83811015610193578082015181840152602081019050610178565b838111156101a2576000848401525b50505050565b6000601f19601f8301169050919050565b60006101c482610159565b6101ce8185610164565b93506101de818560208601610175565b6101e7816101a8565b840191505092915050565b6000819050919050565b610205816101f2565b82525050565b60008115159050919050565b6102208161020b565b82525050565b6000606083016000830151848203600086015261024382826101b9565b915050602083015161025860208601826101fc565b50604083015161026b6040860182610217565b508091505092915050565b7f4e487b7100000000000000000000000000000000000000000000000000000000600052602160045260246000fd5b600481106102b6576102b5610276565b5b50565b60008190506102c7826102a5565b919050565b60006102d7826102b9565b9050919050565b6102e7816102cc565b82525050565b600060408201905081810360008301526103078185610226565b905061031660208301846102de565b9392505050565b7f4e487b7100000000000000000000000000000000000000000000000000000000600052602260045260246000fd5b6000600282049050600182168061036457607f821691505b6020821081036103775761037661031d565b5b5091905056fea26469706673582212204dc0cf39dd60beb9e7ae2dc7cf2d5e4ddd342bd4546064b68c438c9ff7a5d4d964736f6c634300080d0033",
  "immutableReferences": {},
  "source": "// SPDX-License-Identifier: MIT\npragma solidity >=0.4.25 <0.9.0;\npragma experimental ABIEncoderV2;\n\ncontract MarketItem {\n    struct Item {\n        string name;\n        uint256 price;\n        bool isAvailable;\n    }\n\n    enum Categories {dairy, bakery, fruits, vagatables}\n    Categories private category;\n\n    Item private marketItem;\n\n    constructor (string memory _name, uint256 _price, bool _isAvailable, uint256 _category){\n        marketItem = Item(_name, _price, _isAvailable);\n        category = Categories(_category);\n    }\n\n    function getMarketItem() public view returns(Item memory, Categories){\n        return (marketItem, category);\n    }\n\n    function setPrice(uint256 _price) internal {\n        marketItem.price = _price;\n    }\n\n    function setIsAvailable(bool _isAvailable) internal {\n        marketItem.isAvailable = _isAvailable;\n    }\n}\n",
  "sourcePath": "A:\\OneDrive - ITSTEP\\BlockchainSolidity\\Projects\\20250115_GanacheSmartContract\\product\\contracts\\MarketItem.sol",
  "compiler": {
    "name": "solc",
    "version": "0.8.13+commit.abaa5c0e.Emscripten.clang"
  },
  "schemaVersion": "3.4.16",
  "updatedAt": "2025-01-21T06:45:53.850Z",
  "networkType": "ethereum",
  "devdoc": {
    "kind": "dev",
    "methods": {},
    "version": 1
  },
  "userdoc": {
    "kind": "user",
    "methods": {},
    "version": 1
  }
}