{
  "contractName": "MarketItemOwner",
  "abi": [
    {
      "inputs": [],
      "stateMutability": "nonpayable",
      "type": "constructor"
    },
    {
      "inputs": [],
      "name": "marketItem",
      "outputs": [
        {
          "internalType": "contract MarketItem",
          "name": "",
          "type": "address"
        }
      ],
      "stateMutability": "view",
      "type": "function",
      "constant": true
    },
    {
      "inputs": [
        {
          "internalType": "contract MarketItem",
          "name": "_marketItem",
          "type": "address"
        }
      ],
      "name": "setMarketItem",
      "outputs": [],
      "stateMutability": "nonpayable",
      "type": "function"
    },
    {
      "inputs": [],
      "name": "getOwner",
      "outputs": [
        {
          "internalType": "address",
          "name": "",
          "type": "address"
        }
      ],
      "stateMutability": "view",
      "type": "function",
      "constant": true
    },
    {
      "inputs": [
        {
          "internalType": "address",
          "name": "_owner",
          "type": "address"
        }
      ],
      "name": "setOwner",
      "outputs": [],
      "stateMutability": "nonpayable",
      "type": "function"
    }
  ],
  "bytecode": "0x608060405234801561001057600080fd5b5033600160006101000a81548173ffffffffffffffffffffffffffffffffffffffff021916908373ffffffffffffffffffffffffffffffffffffffff16021790555061036f806100616000396000f3fe608060405234801561001057600080fd5b506004361061004c5760003560e01c806313af403514610051578063893d20e81461006d578063be4df6111461008b578063cc083101146100a7575b600080fd5b61006b600480360381019061006691906101fd565b6100c5565b005b610075610109565b6040516100829190610239565b60405180910390f35b6100a560048036038101906100a09190610292565b610133565b005b6100af610176565b6040516100bc919061031e565b60405180910390f35b80600160006101000a81548173ffffffffffffffffffffffffffffffffffffffff021916908373ffffffffffffffffffffffffffffffffffffffff16021790555050565b6000600160009054906101000a900473ffffffffffffffffffffffffffffffffffffffff16905090565b806000806101000a81548173ffffffffffffffffffffffffffffffffffffffff021916908373ffffffffffffffffffffffffffffffffffffffff16021790555050565b60008054906101000a900473ffffffffffffffffffffffffffffffffffffffff1681565b600080fd5b600073ffffffffffffffffffffffffffffffffffffffff82169050919050565b60006101ca8261019f565b9050919050565b6101da816101bf565b81146101e557600080fd5b50565b6000813590506101f7816101d1565b92915050565b6000602082840312156102135761021261019a565b5b6000610221848285016101e8565b91505092915050565b610233816101bf565b82525050565b600060208201905061024e600083018461022a565b92915050565b600061025f826101bf565b9050919050565b61026f81610254565b811461027a57600080fd5b50565b60008135905061028c81610266565b92915050565b6000602082840312156102a8576102a761019a565b5b60006102b68482850161027d565b91505092915050565b6000819050919050565b60006102e46102df6102da8461019f565b6102bf565b61019f565b9050919050565b60006102f6826102c9565b9050919050565b6000610308826102eb565b9050919050565b610318816102fd565b82525050565b6000602082019050610333600083018461030f565b9291505056fea26469706673582212205e1da6009d7e7bde406cfaaec794b60db8391225debadadcdcff6c7005a1046464736f6c634300080d0033",
  "immutableReferences": {},
  "source": "// SPDX-License-Identifier: MIT\r\npragma solidity >=0.4.25 <0.9.0;\r\npragma experimental ABIEncoderV2;\r\n\r\nimport \"./MarketItem.sol\";\r\n\r\ncontract MarketItemOwner {\r\n    MarketItem public marketItem;\r\n    address private owner;\r\n\r\n    constructor (){\r\n        owner = msg.sender;\r\n    }\r\n\r\n    function setMarketItem(MarketItem _marketItem) external {\r\n        marketItem = _marketItem;\r\n    }\r\n\r\n    function getOwner() public view returns(address){\r\n        return owner;\r\n    }\r\n\r\n    function setOwner(address _owner) external {\r\n        owner = _owner;\r\n    }\r\n}\r\n\r\n",
  "sourcePath": "A:\\OneDrive - ITSTEP\\BlockchainSolidity\\Projects\\20250115_GanacheSmartContract\\product\\contracts\\MarketItemOwner.sol",
  "compiler": {
    "name": "solc",
    "version": "0.8.13+commit.abaa5c0e.Emscripten.clang"
  },
  "schemaVersion": "3.4.16",
  "updatedAt": "2025-01-21T06:45:54.034Z",
  "networkType": "ethereum",
  "devdoc": {
    "kind": "dev",
    "methods": {},
    "version": 1
  },
  "userdoc": {
    "kind": "user",
    "methods": {},
    "version": 1
  }
}