{
  "contractName": "DataStorage",
  "abi": [
    {
      "inputs": [],
      "stateMutability": "nonpayable",
      "type": "constructor"
    },
    {
      "inputs": [
        {
          "internalType": "uint256",
          "name": "_balance",
          "type": "uint256"
        }
      ],
      "name": "setBalance",
      "outputs": [],
      "stateMutability": "nonpayable",
      "type": "function"
    },
    {
      "inputs": [],
      "name": "getBalance",
      "outputs": [
        {
          "internalType": "uint256",
          "name": "",
          "type": "uint256"
        }
      ],
      "stateMutability": "view",
      "type": "function",
      "constant": true
    },
    {
      "inputs": [],
      "name": "getOwner",
      "outputs": [
        {
          "internalType": "address",
          "name": "",
          "type": "address"
        }
      ],
      "stateMutability": "view",
      "type": "function",
      "constant": true
    }
  ],
  "bytecode": "0x608060405234801561001057600080fd5b5033600160006101000a81548173ffffffffffffffffffffffffffffffffffffffff021916908373ffffffffffffffffffffffffffffffffffffffff1602179055506102e5806100616000396000f3fe608060405234801561001057600080fd5b50600436106100415760003560e01c806312065fe014610046578063893d20e814610064578063fb1669ca14610082575b600080fd5b61004e61009e565b60405161005b9190610137565b60405180910390f35b61006c6100a7565b6040516100799190610193565b60405180910390f35b61009c600480360381019061009791906101df565b6100d1565b005b60008054905090565b6000600160009054906101000a900473ffffffffffffffffffffffffffffffffffffffff16905090565b60008111610114576040517f08c379a000000000000000000000000000000000000000000000000000000000815260040161010b9061028f565b60405180910390fd5b8060008190555050565b6000819050919050565b6101318161011e565b82525050565b600060208201905061014c6000830184610128565b92915050565b600073ffffffffffffffffffffffffffffffffffffffff82169050919050565b600061017d82610152565b9050919050565b61018d81610172565b82525050565b60006020820190506101a86000830184610184565b92915050565b600080fd5b6101bc8161011e565b81146101c757600080fd5b50565b6000813590506101d9816101b3565b92915050565b6000602082840312156101f5576101f46101ae565b5b6000610203848285016101ca565b91505092915050565b600082825260208201905092915050565b7f4572726f7221205468652062616c616e6365206861766520746f206265203e2060008201527f302e000000000000000000000000000000000000000000000000000000000000602082015250565b600061027960228361020c565b91506102848261021d565b604082019050919050565b600060208201905081810360008301526102a88161026c565b905091905056fea2646970667358221220eed03a80c4eeb518c0390fe111486a2f69aec04fd4dcdc52c79099221b30fa6a64736f6c634300080d0033",
  "immutableReferences": {},
  "source": "// SPDX-License-Identifier: MIT\r\npragma solidity >=0.4.22 <0.9.0;\r\n\r\ncontract DataStorage {\r\n\r\n  uint256 private balance;\r\n  address private owner;\r\n\r\n  constructor() {\r\n    owner = msg.sender;\r\n  }\r\n\r\n  function setBalance(uint256 _balance) public {\r\n    require(_balance > 0, \"Error! The balance have to be > 0.\");\r\n    balance = _balance;\r\n  }\r\n\r\n  function getBalance() public view returns (uint256){\r\n    return balance;\r\n  }\r\n\r\n  function getOwner() public view returns (address){\r\n    return owner;\r\n  }\r\n}\r\n",
  "sourcePath": "A:\\OneDrive - ITSTEP\\BlockchainSolidity\\Projects\\20250115_GanacheSmartContract\\test_smart_contract\\contracts\\DataStorage.sol",
  "compiler": {
    "name": "solc",
    "version": "0.8.13+commit.abaa5c0e.Emscripten.clang"
  },
  "schemaVersion": "3.4.16",
  "updatedAt": "2025-01-27T05:48:26.343Z",
  "networkType": "ethereum",
  "devdoc": {
    "kind": "dev",
    "methods": {},
    "version": 1
  },
  "userdoc": {
    "kind": "user",
    "methods": {},
    "version": 1
  }
}