{
  "contractName": "HelloBlockchain",
  "abi": [
    {
      "inputs": [
        {
          "internalType": "string",
          "name": "message",
          "type": "string"
        }
      ],
      "stateMutability": "nonpayable",
      "type": "constructor"
    },
    {
      "inputs": [],
      "name": "RequestMessage",
      "outputs": [
        {
          "internalType": "string",
          "name": "",
          "type": "string"
        }
      ],
      "stateMutability": "view",
      "type": "function"
    },
    {
      "inputs": [],
      "name": "Requestor",
      "outputs": [
        {
          "internalType": "address",
          "name": "",
          "type": "address"
        }
      ],
      "stateMutability": "view",
      "type": "function"
    },
    {
      "inputs": [],
      "name": "Responder",
      "outputs": [
        {
          "internalType": "address",
          "name": "",
          "type": "address"
        }
      ],
      "stateMutability": "view",
      "type": "function"
    },
    {
      "inputs": [],
      "name": "ResponseMessage",
      "outputs": [
        {
          "internalType": "string",
          "name": "",
          "type": "string"
        }
      ],
      "stateMutability": "view",
      "type": "function"
    },
    {
      "inputs": [],
      "name": "State",
      "outputs": [
        {
          "internalType": "enum HelloBlockchain.StateType",
          "name": "",
          "type": "uint8"
        }
      ],
      "stateMutability": "view",
      "type": "function"
    },
    {
      "inputs": [
        {
          "internalType": "string",
          "name": "requestMessage",
          "type": "string"
        }
      ],
      "name": "SendRequest",
      "outputs": [],
      "stateMutability": "nonpayable",
      "type": "function"
    },
    {
      "inputs": [
        {
          "internalType": "string",
          "name": "responseMessage",
          "type": "string"
        }
      ],
      "name": "SendResponse",
      "outputs": [],
      "stateMutability": "nonpayable",
      "type": "function"
    }
  ],
  "bytecode": "0x608060405234801562000010575f80fd5b5060405162000fcc38038062000fcc83398181016040528101906200003691906200023f565b335f60016101000a81548173ffffffffffffffffffffffffffffffffffffffff021916908373ffffffffffffffffffffffffffffffffffffffff1602179055508060029081620000879190620004c5565b505f805f6101000a81548160ff02191690836001811115620000ae57620000ad620005a9565b5b021790555050620005d6565b5f604051905090565b5f80fd5b5f80fd5b5f80fd5b5f80fd5b5f601f19601f8301169050919050565b7f4e487b71000000000000000000000000000000000000000000000000000000005f52604160045260245ffd5b6200011b82620000d3565b810181811067ffffffffffffffff821117156200013d576200013c620000e3565b5b80604052505050565b5f62000151620000ba565b90506200015f828262000110565b919050565b5f67ffffffffffffffff821115620001815762000180620000e3565b5b6200018c82620000d3565b9050602081019050919050565b5f5b83811015620001b85780820151818401526020810190506200019b565b5f8484015250505050565b5f620001d9620001d38462000164565b62000146565b905082815260208101848484011115620001f857620001f7620000cf565b5b6200020584828562000199565b509392505050565b5f82601f830112620002245762000223620000cb565b5b815162000236848260208601620001c3565b91505092915050565b5f60208284031215620002575762000256620000c3565b5b5f82015167ffffffffffffffff811115620002775762000276620000c7565b5b62000285848285016200020d565b91505092915050565b5f81519050919050565b7f4e487b71000000000000000000000000000000000000000000000000000000005f52602260045260245ffd5b5f6002820490506001821680620002dd57607f821691505b602082108103620002f357620002f262000298565b5b50919050565b5f819050815f5260205f209050919050565b5f6020601f8301049050919050565b5f82821b905092915050565b5f60088302620003577fffffffffffffffffffffffffffffffffffffffffffffffffffffffffffffffff826200031a565b6200036386836200031a565b95508019841693508086168417925050509392505050565b5f819050919050565b5f819050919050565b5f620003ad620003a7620003a1846200037b565b62000384565b6200037b565b9050919050565b5f819050919050565b620003c8836200038d565b620003e0620003d782620003b4565b84845462000326565b825550505050565b5f90565b620003f6620003e8565b62000403818484620003bd565b505050565b5b818110156200042a576200041e5f82620003ec565b60018101905062000409565b5050565b601f82111562000479576200044381620002f9565b6200044e846200030b565b810160208510156200045e578190505b620004766200046d856200030b565b83018262000408565b50505b505050565b5f82821c905092915050565b5f6200049b5f19846008026200047e565b1980831691505092915050565b5f620004b583836200048a565b9150826002028217905092915050565b620004d0826200028e565b67ffffffffffffffff811115620004ec57620004eb620000e3565b5b620004f88254620002c5565b620005058282856200042e565b5f60209050601f8311600181146200053b575f841562000526578287015190505b620005328582620004a8565b865550620005a1565b601f1984166200054b86620002f9565b5f5b8281101562000574578489015182556001820191506020850194506020810190506200054d565b8683101562000594578489015162000590601f8916826200048a565b8355505b6001600288020188555050505b505050505050565b7f4e487b71000000000000000000000000000000000000000000000000000000005f52602160045260245ffd5b6109e880620005e45f395ff3fe608060405234801561000f575f80fd5b506004361061007b575f3560e01c8063d181ada111610059578063d181ada1146100d5578063e750e2da146100f3578063f1b6dccd14610111578063fd05116c1461012f5761007b565b80635ab28ecb1461007f578063829c2d6d1461009d578063a7a1ba15146100b9575b5f80fd5b61008761014d565b6040516100949190610458565b60405180910390f35b6100b760048036038101906100b291906105b5565b6101d9565b005b6100d360048036038101906100ce91906105b5565b610255565b005b6100dd6102e8565b6040516100ea919061063b565b60405180910390f35b6100fb61030d565b6040516101089190610458565b60405180910390f35b610119610399565b60405161012691906106c7565b60405180910390f35b6101376103a9565b604051610144919061063b565b60405180910390f35b6003805461015a9061070d565b80601f01602080910402602001604051908101604052809291908181526020018280546101869061070d565b80156101d15780601f106101a8576101008083540402835291602001916101d1565b820191905f5260205f20905b8154815290600101906020018083116101b457829003601f168201915b505050505081565b3360015f6101000a81548173ffffffffffffffffffffffffffffffffffffffff021916908373ffffffffffffffffffffffffffffffffffffffff160217905550806003908161022891906108e3565b5060015f806101000a81548160ff0219169083600181111561024d5761024c610654565b5b021790555050565b3373ffffffffffffffffffffffffffffffffffffffff165f60019054906101000a900473ffffffffffffffffffffffffffffffffffffffff1673ffffffffffffffffffffffffffffffffffffffff16146102ad575f80fd5b80600290816102bc91906108e3565b505f805f6101000a81548160ff021916908360018111156102e0576102df610654565b5b021790555050565b60015f9054906101000a900473ffffffffffffffffffffffffffffffffffffffff1681565b6002805461031a9061070d565b80601f01602080910402602001604051908101604052809291908181526020018280546103469061070d565b80156103915780601f1061036857610100808354040283529160200191610391565b820191905f5260205f20905b81548152906001019060200180831161037457829003601f168201915b505050505081565b5f8054906101000a900460ff1681565b5f60019054906101000a900473ffffffffffffffffffffffffffffffffffffffff1681565b5f81519050919050565b5f82825260208201905092915050565b5f5b838110156104055780820151818401526020810190506103ea565b5f8484015250505050565b5f601f19601f8301169050919050565b5f61042a826103ce565b61043481856103d8565b93506104448185602086016103e8565b61044d81610410565b840191505092915050565b5f6020820190508181035f8301526104708184610420565b905092915050565b5f604051905090565b5f80fd5b5f80fd5b5f80fd5b5f80fd5b7f4e487b71000000000000000000000000000000000000000000000000000000005f52604160045260245ffd5b6104c782610410565b810181811067ffffffffffffffff821117156104e6576104e5610491565b5b80604052505050565b5f6104f8610478565b905061050482826104be565b919050565b5f67ffffffffffffffff82111561052357610522610491565b5b61052c82610410565b9050602081019050919050565b828183375f83830152505050565b5f61055961055484610509565b6104ef565b9050828152602081018484840111156105755761057461048d565b5b610580848285610539565b509392505050565b5f82601f83011261059c5761059b610489565b5b81356105ac848260208601610547565b91505092915050565b5f602082840312156105ca576105c9610481565b5b5f82013567ffffffffffffffff8111156105e7576105e6610485565b5b6105f384828501610588565b91505092915050565b5f73ffffffffffffffffffffffffffffffffffffffff82169050919050565b5f610625826105fc565b9050919050565b6106358161061b565b82525050565b5f60208201905061064e5f83018461062c565b92915050565b7f4e487b71000000000000000000000000000000000000000000000000000000005f52602160045260245ffd5b6002811061069257610691610654565b5b50565b5f8190506106a282610681565b919050565b5f6106b182610695565b9050919050565b6106c1816106a7565b82525050565b5f6020820190506106da5f8301846106b8565b92915050565b7f4e487b71000000000000000000000000000000000000000000000000000000005f52602260045260245ffd5b5f600282049050600182168061072457607f821691505b602082108103610737576107366106e0565b5b50919050565b5f819050815f5260205f209050919050565b5f6020601f8301049050919050565b5f82821b905092915050565b5f600883026107997fffffffffffffffffffffffffffffffffffffffffffffffffffffffffffffffff8261075e565b6107a3868361075e565b95508019841693508086168417925050509392505050565b5f819050919050565b5f819050919050565b5f6107e76107e26107dd846107bb565b6107c4565b6107bb565b9050919050565b5f819050919050565b610800836107cd565b61081461080c826107ee565b84845461076a565b825550505050565b5f90565b61082861081c565b6108338184846107f7565b505050565b5b818110156108565761084b5f82610820565b600181019050610839565b5050565b601f82111561089b5761086c8161073d565b6108758461074f565b81016020851015610884578190505b6108986108908561074f565b830182610838565b50505b505050565b5f82821c905092915050565b5f6108bb5f19846008026108a0565b1980831691505092915050565b5f6108d383836108ac565b9150826002028217905092915050565b6108ec826103ce565b67ffffffffffffffff81111561090557610904610491565b5b61090f825461070d565b61091a82828561085a565b5f60209050601f83116001811461094b575f8415610939578287015190505b61094385826108c8565b8655506109aa565b601f1984166109598661073d565b5f5b828110156109805784890151825560018201915060208501945060208101905061095b565b8683101561099d5784890151610999601f8916826108ac565b8355505b6001600288020188555050505b50505050505056fea26469706673582212201e7f29d00326febc11fd13dbff15fb3fffa5394745c98823ba5914dbd3b179d864736f6c63430008150033",
  "immutableReferences": {},
  "source": "// SPDX-License-Identifier: MIT\npragma solidity >=0.4.25 <0.9.0;\n\ncontract HelloBlockchain {\n    enum StateType { Request, Respond }\n\n    StateType public  State;\n    address public  Requestor;\n    address public  Responder;\n\n    string public RequestMessage;\n    string public ResponseMessage;\n\n    constructor(string memory message) {\n        Requestor = msg.sender;\n        RequestMessage = message;\n        State = StateType.Request;\n    }\n\n    // call this function to send a request\n    function SendRequest(string memory requestMessage) public {\n\n        if (Requestor != msg.sender) {\n            revert();\n        }\n\n        RequestMessage = requestMessage;\n        State = StateType.Request;\n    }\n\n    // call this function to send a response\n    function SendResponse(string memory responseMessage) public {\n\n        Responder = msg.sender;\n        ResponseMessage = responseMessage;\n        State = StateType.Respond;\n    }\n}\n",
  "sourcePath": "A:\\OneDrive - ITSTEP\\BlockchainSolidity\\Projects\\20250115_GanacheSmartContract\\test_smart_contract\\contracts\\HelloBlockchain.sol",
  "compiler": {
    "name": "solc",
    "version": "0.8.21+commit.d9974bed.Emscripten.clang"
  },
  "schemaVersion": "3.4.16",
  "updatedAt": "2025-01-15T09:38:33.259Z",
  "devdoc": {
    "kind": "dev",
    "methods": {},
    "version": 1
  },
  "userdoc": {
    "kind": "user",
    "methods": {},
    "version": 1
  }
}